{
  "contractName": "Arbitrage",
  "abi": [
    {
      "inputs": [],
      "stateMutability": "nonpayable",
      "type": "constructor"
    },
    {
      "anonymous": false,
      "inputs": [
        {
          "indexed": false,
          "internalType": "uint16",
          "name": "algo",
          "type": "uint16"
        }
      ],
      "name": "log",
      "type": "event"
    },
    {
      "anonymous": false,
      "inputs": [
        {
          "indexed": false,
          "internalType": "address",
          "name": "add",
          "type": "address"
        }
      ],
      "name": "log2",
      "type": "event"
    },
    {
      "anonymous": false,
      "inputs": [
        {
          "indexed": false,
          "internalType": "address",
          "name": "msgSender",
          "type": "address"
        }
      ],
      "name": "log3",
      "type": "event"
    },
    {
      "inputs": [],
      "name": "exchangeRouter",
      "outputs": [
        {
          "internalType": "contract IUniswapV2Router02",
          "name": "",
          "type": "address"
        }
      ],
      "stateMutability": "view",
      "type": "function",
      "constant": true
    },
    {
      "inputs": [],
      "name": "factory",
      "outputs": [
        {
          "internalType": "address",
          "name": "",
          "type": "address"
        }
      ],
      "stateMutability": "view",
      "type": "function",
      "constant": true
    },
    {
      "inputs": [
        {
          "internalType": "address",
          "name": "token0",
          "type": "address"
        },
        {
          "internalType": "address",
          "name": "token1",
          "type": "address"
        },
        {
          "internalType": "uint256",
          "name": "amount0",
          "type": "uint256"
        },
        {
          "internalType": "uint256",
          "name": "amount1",
          "type": "uint256"
        }
      ],
      "name": "startArbitrage",
      "outputs": [],
      "stateMutability": "nonpayable",
      "type": "function"
    },
    {
      "inputs": [
        {
          "internalType": "address",
          "name": "_sender",
          "type": "address"
        },
        {
          "internalType": "uint256",
          "name": "_amount0",
          "type": "uint256"
        },
        {
          "internalType": "uint256",
          "name": "_amount1",
          "type": "uint256"
        },
        {
          "internalType": "bytes",
          "name": "_data",
          "type": "bytes"
        }
      ],
      "name": "pancakeCall",
      "outputs": [],
      "stateMutability": "nonpayable",
      "type": "function"
    }
  ],
  "bytecode": "0x608060405234801561001057600080fd5b50736725f303b657a9451d8ba641348b6761a6cc7a176000806101000a81548173ffffffffffffffffffffffffffffffffffffffff021916908373ffffffffffffffffffffffffffffffffffffffff160217905550733bc677674df90a9e5d741f28f6ca303357d0e4ec600160006101000a81548173ffffffffffffffffffffffffffffffffffffffff021916908373ffffffffffffffffffffffffffffffffffffffff1602179055506116a8806100c96000396000f3fe608060405234801561001057600080fd5b506004361061004c5760003560e01c80631cb858181461005157806376e9d0661461008557806384800812146100fd578063c45a0155146101aa575b600080fd5b6100596101de565b604051808273ffffffffffffffffffffffffffffffffffffffff16815260200191505060405180910390f35b6100fb6004803603608081101561009b57600080fd5b81019080803573ffffffffffffffffffffffffffffffffffffffff169060200190929190803573ffffffffffffffffffffffffffffffffffffffff1690602001909291908035906020019092919080359060200190929190505050610204565b005b6101a86004803603608081101561011357600080fd5b81019080803573ffffffffffffffffffffffffffffffffffffffff16906020019092919080359060200190929190803590602001909291908035906020019064010000000081111561016457600080fd5b82018360208201111561017657600080fd5b8035906020019184600183028401116401000000008311171561019857600080fd5b909192939192939050505061054b565b005b6101b2610f00565b604051808273ffffffffffffffffffffffffffffffffffffffff16815260200191505060405180910390f35b600160009054906101000a900473ffffffffffffffffffffffffffffffffffffffff1681565b7f63a61c685942f32ee5512e272924a60726276c6bd15d2a2cfc37625ac96a9ec560016040518082815260200191505060405180910390a160008060009054906101000a900473ffffffffffffffffffffffffffffffffffffffff1673ffffffffffffffffffffffffffffffffffffffff1663e6a4390586866040518363ffffffff1660e01b8152600401808373ffffffffffffffffffffffffffffffffffffffff1681526020018273ffffffffffffffffffffffffffffffffffffffff1681526020019250505060206040518083038186803b1580156102e457600080fd5b505afa1580156102f8573d6000803e3d6000fd5b505050506040513d602081101561030e57600080fd5b81019080805190602001909291905050509050600073ffffffffffffffffffffffffffffffffffffffff168173ffffffffffffffffffffffffffffffffffffffff1614156103c4576040517f08c379a00000000000000000000000000000000000000000000000000000000081526004018080602001828103825260188152602001807f5468697320706f6f6c20646f6573206e6f74206578697374000000000000000081525060200191505060405180910390fd5b7f417e7fdd0bb07fbb84a7ca36de48fd279fe40a404588a1b8bf2a8ce215e8382581604051808273ffffffffffffffffffffffffffffffffffffffff16815260200191505060405180910390a18073ffffffffffffffffffffffffffffffffffffffff1663022c0d9f8484306040518060400160405280600981526020017f6e6f7420656d70747900000000000000000000000000000000000000000000008152506040518563ffffffff1660e01b8152600401808581526020018481526020018373ffffffffffffffffffffffffffffffffffffffff16815260200180602001828103825283818151815260200191508051906020019080838360005b838110156104dd5780820151818401526020810190506104c2565b50505050905090810190601f16801561050a5780820380516001836020036101000a031916815260200191505b5095505050505050600060405180830381600087803b15801561052c57600080fd5b505af1158015610540573d6000803e3d6000fd5b505050505050505050565b7f63a61c685942f32ee5512e272924a60726276c6bd15d2a2cfc37625ac96a9ec560026040518082815260200191505060405180910390a16060600267ffffffffffffffff8111801561059d57600080fd5b506040519080825280602002602001820160405280156105cc5781602001602082028036833780820191505090505b50905060008086146105de57856105e0565b845b905060003373ffffffffffffffffffffffffffffffffffffffff16630dfe16816040518163ffffffff1660e01b815260040160206040518083038186803b15801561062a57600080fd5b505afa15801561063e573d6000803e3d6000fd5b505050506040513d602081101561065457600080fd5b8101908080519060200190929190505050905060003373ffffffffffffffffffffffffffffffffffffffff1663d21220a76040518163ffffffff1660e01b815260040160206040518083038186803b1580156106af57600080fd5b505afa1580156106c3573d6000803e3d6000fd5b505050506040513d60208110156106d957600080fd5b810190808051906020019092919050505090507f51d4a4d0faac25b8b1d628c9fd328a0eb1e16a1df5a047f884607a771c1a566b33604051808273ffffffffffffffffffffffffffffffffffffffff16815260200191505060405180910390a17f51d4a4d0faac25b8b1d628c9fd328a0eb1e16a1df5a047f884607a771c1a566b30604051808273ffffffffffffffffffffffffffffffffffffffff16815260200191505060405180910390a160008054906101000a900473ffffffffffffffffffffffffffffffffffffffff1673ffffffffffffffffffffffffffffffffffffffff1663e6a4390583836040518363ffffffff1660e01b8152600401808373ffffffffffffffffffffffffffffffffffffffff1681526020018273ffffffffffffffffffffffffffffffffffffffff1681526020019250505060206040518083038186803b15801561082b57600080fd5b505afa15801561083f573d6000803e3d6000fd5b505050506040513d602081101561085557600080fd5b810190808051906020019092919050505073ffffffffffffffffffffffffffffffffffffffff163373ffffffffffffffffffffffffffffffffffffffff1614610906576040517f08c379a000000000000000000000000000000000000000000000000000000000815260040180806020018281038252600c8152602001807f556e617574686f72697a6564000000000000000000000000000000000000000081525060200191505060405180910390fd5b60008814806109155750600087145b61091e57600080fd5b6000881461092c578161092e565b805b8460008151811061093b57fe5b602002602001019073ffffffffffffffffffffffffffffffffffffffff16908173ffffffffffffffffffffffffffffffffffffffff1681525050600088146109835780610985565b815b8460018151811061099257fe5b602002602001019073ffffffffffffffffffffffffffffffffffffffff16908173ffffffffffffffffffffffffffffffffffffffff168152505060008089146109db57826109dd565b815b90508073ffffffffffffffffffffffffffffffffffffffff1663095ea7b3600160009054906101000a900473ffffffffffffffffffffffffffffffffffffffff16866040518363ffffffff1660e01b8152600401808373ffffffffffffffffffffffffffffffffffffffff16815260200182815260200192505050602060405180830381600087803b158015610a7257600080fd5b505af1158015610a86573d6000803e3d6000fd5b505050506040513d6020811015610a9c57600080fd5b8101908080519060200190929190505050507f63a61c685942f32ee5512e272924a60726276c6bd15d2a2cfc37625ac96a9ec560036040518082815260200191505060405180910390a16000610b1360008054906101000a900473ffffffffffffffffffffffffffffffffffffffff168688610f24565b600081518110610b1f57fe5b602002602001015190506000600160009054906101000a900473ffffffffffffffffffffffffffffffffffffffff1673ffffffffffffffffffffffffffffffffffffffff16637ff36ab587848a30620151806040518663ffffffff1660e01b815260040180858152602001806020018473ffffffffffffffffffffffffffffffffffffffff168152602001838152602001828103825285818151815260200191508051906020019060200280838360005b83811015610beb578082015181840152602081019050610bd0565b50505050905001955050505050506000604051808303818588803b158015610c1257600080fd5b505af1158015610c26573d6000803e3d6000fd5b50505050506040513d6000823e3d601f19601f820116820180604052506020811015610c5157600080fd5b8101908080516040519392919084640100000000821115610c7157600080fd5b83820191506020820185811115610c8757600080fd5b8251866020820283011164010000000082111715610ca457600080fd5b8083526020830192505050908051906020019060200280838360005b83811015610cdb578082015181840152602081019050610cc0565b50505050905001604052505050600181518110610cf457fe5b602002602001015190507f63a61c685942f32ee5512e272924a60726276c6bd15d2a2cfc37625ac96a9ec560046040518082815260200191505060405180910390a16000808c14610d455784610d47565b855b90508073ffffffffffffffffffffffffffffffffffffffff1663a9059cbb33856040518363ffffffff1660e01b8152600401808373ffffffffffffffffffffffffffffffffffffffff16815260200182815260200192505050602060405180830381600087803b158015610dba57600080fd5b505af1158015610dce573d6000803e3d6000fd5b505050506040513d6020811015610de457600080fd5b8101908080519060200190929190505050508073ffffffffffffffffffffffffffffffffffffffff1663a9059cbb7397c14e4e7ecec5106b315ed4c7ca1983affc11b38585036040518363ffffffff1660e01b8152600401808373ffffffffffffffffffffffffffffffffffffffff16815260200182815260200192505050602060405180830381600087803b158015610e7d57600080fd5b505af1158015610e91573d6000803e3d6000fd5b505050506040513d6020811015610ea757600080fd5b8101908080519060200190929190505050507f63a61c685942f32ee5512e272924a60726276c6bd15d2a2cfc37625ac96a9ec560056040518082815260200191505060405180910390a150505050505050505050505050565b60008054906101000a900473ffffffffffffffffffffffffffffffffffffffff1681565b6060600282511015610f9e576040517f08c379a000000000000000000000000000000000000000000000000000000000815260040180806020018281038252601e8152602001807f556e697377617056324c6962726172793a20494e56414c49445f50415448000081525060200191505060405180910390fd5b815167ffffffffffffffff81118015610fb657600080fd5b50604051908082528060200260200182016040528015610fe55781602001602082028036833780820191505090505b5090508281600183510381518110610ff957fe5b6020026020010181815250506000600183510390505b600081111561109c5760008061104f8786600186038151811061102e57fe5b602002602001015187868151811061104257fe5b60200260200101516110a4565b9150915061107184848151811061106257fe5b602002602001015183836111cd565b84600185038151811061108057fe5b602002602001018181525050505080806001900391505061100f565b509392505050565b60008060006110b3858561130a565b5090506000806110c4888888611481565b73ffffffffffffffffffffffffffffffffffffffff16630902f1ac6040518163ffffffff1660e01b815260040160606040518083038186803b15801561110957600080fd5b505afa15801561111d573d6000803e3d6000fd5b505050506040513d606081101561113357600080fd5b81019080805190602001909291908051906020019092919080519060200190929190505050506dffffffffffffffffffffffffffff1691506dffffffffffffffffffffffffffff1691508273ffffffffffffffffffffffffffffffffffffffff168773ffffffffffffffffffffffffffffffffffffffff16146111b75780826111ba565b81815b8095508196505050505050935093915050565b6000808411611227576040517f08c379a000000000000000000000000000000000000000000000000000000000815260040180806020018281038252602c8152602001806115fa602c913960400191505060405180910390fd5b6000831180156112375750600082115b61128c576040517f08c379a000000000000000000000000000000000000000000000000000000000815260040180806020018281038252602881526020018061164b6028913960400191505060405180910390fd5b60006112b56103e86112a7878761159a90919063ffffffff16565b61159a90919063ffffffff16565b905060006112e06103e56112d288876115cb90919063ffffffff16565b61159a90919063ffffffff16565b90506112ff60018284816112f057fe5b046115e290919063ffffffff16565b925050509392505050565b6000808273ffffffffffffffffffffffffffffffffffffffff168473ffffffffffffffffffffffffffffffffffffffff161415611392576040517f08c379a00000000000000000000000000000000000000000000000000000000081526004018080602001828103825260258152602001806116266025913960400191505060405180910390fd5b8273ffffffffffffffffffffffffffffffffffffffff168473ffffffffffffffffffffffffffffffffffffffff16106113cc5782846113cf565b83835b8092508193505050600073ffffffffffffffffffffffffffffffffffffffff168273ffffffffffffffffffffffffffffffffffffffff16141561147a576040517f08c379a000000000000000000000000000000000000000000000000000000000815260040180806020018281038252601e8152602001807f556e697377617056324c6962726172793a205a45524f5f41444452455353000081525060200191505060405180910390fd5b9250929050565b6000806000611490858561130a565b91509150858282604051602001808373ffffffffffffffffffffffffffffffffffffffff1660601b81526014018273ffffffffffffffffffffffffffffffffffffffff1660601b8152601401925050506040516020818303038152906040528051906020012060405160200180807fff000000000000000000000000000000000000000000000000000000000000008152506001018373ffffffffffffffffffffffffffffffffffffffff1660601b8152601401828152602001807f96e8ac4277198ff8b6f785478aa9a39f403cb768dd02cbee326c3e7da348845f815250602001925050506040516020818303038152906040528051906020012060001c925050509392505050565b6000808314156115ad57600090506115c5565b8183029050818382816115bc57fe5b04146115c457fe5b5b92915050565b6000828211156115d757fe5b818303905092915050565b60008183019050828110156115f357fe5b9291505056fe556e697377617056324c6962726172793a20494e53554646494349454e545f4f55545055545f414d4f554e54556e697377617056324c6962726172793a204944454e544943414c5f414444524553534553556e697377617056324c6962726172793a20494e53554646494349454e545f4c4951554944495459a26469706673582212208063192bde42268a30969c90c214ad5b6a6e486b676491b05576510baf7bf55464736f6c634300060c0033",
  "immutableReferences": {},
  "source": "pragma solidity ^0.6.6;\r\n\r\nimport \"./UniswapV2Library.sol\";\r\nimport \"./interfaces/IUniswapV2Router02.sol\";\r\nimport \"./interfaces/IUniswapV2Pair.sol\";\r\nimport \"./interfaces/IUniswapV2Factory.sol\";\r\nimport \"./interfaces/IERC20.sol\";\r\n\r\ncontract Arbitrage {\r\n    address public factory;\r\n    uint256 constant deadline = 1 days;\r\n    IUniswapV2Router02 public exchangeRouter;\r\n    event log(uint16 algo);\r\n    event log2(address add);\r\n    event log3(address msgSender);\r\n\r\n    constructor() public {\r\n        factory = 0x6725F303b657a9451d8BA641348b6761A6CC7a17; //factory de pancakeswap\r\n        exchangeRouter = IUniswapV2Router02(\r\n            0x3bc677674df90A9e5D741f28f6CA303357D0E4Ec\r\n        ); //router de hyperswap\r\n    }\r\n\r\n    function startArbitrage(\r\n        address token0, //wbnb\r\n        address token1, //token x\r\n        uint256 amount0,\r\n        uint256 amount1\r\n    ) external {\r\n        emit log(1);\r\n        // se obtiene el pair address de (wbnb/token x) del factory al cual le pedire prestado\r\n        address pairAddress =\r\n            IUniswapV2Factory(factory).getPair(token0, token1);\r\n        require(pairAddress != address(0), \"This pool does not exist\");\r\n        emit log2(pairAddress);\r\n        // pido prestado al factory\r\n        IUniswapV2Pair(pairAddress).swap(\r\n            amount0,\r\n            amount1,\r\n            address(this),\r\n            bytes(\"not empty\")\r\n        );\r\n    }\r\n\r\n    function pancakeCall(\r\n        address _sender,\r\n        uint256 _amount0,\r\n        uint256 _amount1,\r\n        bytes calldata _data\r\n    ) external {\r\n        emit log(2);\r\n        //[wbnb, token x]\r\n        address[] memory path = new address[](2);\r\n        uint256 amountToken = _amount0 == 0 ? _amount1 : _amount0;\r\n\r\n        address token0 = IUniswapV2Pair(msg.sender).token0();\r\n        address token1 = IUniswapV2Pair(msg.sender).token1();\r\n\r\n        emit log3(msg.sender);\r\n        emit log3(address(this));\r\n\r\n        require(\r\n            //msg.sender == UniswapV2Library.pairFor(factory, token0, token1),\r\n            msg.sender == IUniswapV2Factory(factory).getPair(token0, token1),\r\n            \"Unauthorized\"\r\n        );\r\n        require(_amount0 == 0 || _amount1 == 0);\r\n\r\n        path[0] = _amount0 == 0 ? token1 : token0;\r\n        path[1] = _amount0 == 0 ? token0 : token1;\r\n\r\n        IERC20 token = IERC20(_amount0 == 0 ? token1 : token0);\r\n\r\n        //approve de wbnb para que el router gaste\r\n        token.approve(address(exchangeRouter), amountToken);\r\n\r\n        emit log(3);\r\n        //obtengo el precio del wbnb en token x consultando al factory\r\n        uint256 amountRequired =\r\n            UniswapV2Library.getAmountsIn(factory, amountToken, path)[0];\r\n\r\n        //cambio los wbnb por token x en el router y se guarda en el address del contrato\r\n        uint256 amountReceived =\r\n            exchangeRouter.swapExactETHForTokens{value: amountToken}(\r\n                amountRequired,\r\n                path,\r\n                address(this), //msg.sender,\r\n                deadline\r\n            )[1];\r\n\r\n        emit log(4);\r\n        IERC20 otherToken = IERC20(_amount0 == 0 ? token0 : token1);\r\n\r\n        //se paga lo prestado al factory\r\n        otherToken.transfer(msg.sender, amountRequired);\r\n\r\n        //se me da el profit\r\n        otherToken.transfer(\r\n            0x97c14E4e7ECEc5106b315ed4c7cA1983AfFc11b3,\r\n            amountReceived - amountRequired\r\n        );\r\n        emit log(5);\r\n    }\r\n}\r\n",
  "sourcePath": "C:/Users/Jaciel Gonzalez/desktop/tokenization/contracts/Arbitrage.sol",
  "compiler": {
    "name": "solc",
    "version": "0.6.12+commit.27d51765.Emscripten.clang"
  },
  "schemaVersion": "3.4.1",
  "updatedAt": "2021-06-03T04:48:13.776Z",
  "networkType": "ethereum",
  "devdoc": {
    "kind": "dev",
    "methods": {},
    "version": 1
  },
  "userdoc": {
    "kind": "user",
    "methods": {},
    "version": 1
  }
}