{
  "contractName": "Exchange",
  "abi": [
    {
      "inputs": [],
      "stateMutability": "nonpayable",
      "type": "constructor"
    },
    {
      "inputs": [],
      "name": "pancakeswapRouter",
      "outputs": [
        {
          "internalType": "contract IUniswapV2Router02",
          "name": "",
          "type": "address"
        }
      ],
      "stateMutability": "view",
      "type": "function",
      "constant": true
    },
    {
      "stateMutability": "payable",
      "type": "receive",
      "payable": true
    },
    {
      "inputs": [
        {
          "internalType": "uint256",
          "name": "busdAmount",
          "type": "uint256"
        }
      ],
      "name": "convertEthToBusd",
      "outputs": [],
      "stateMutability": "payable",
      "type": "function",
      "payable": true
    },
    {
      "inputs": [
        {
          "internalType": "uint256",
          "name": "busdMinAmount",
          "type": "uint256"
        }
      ],
      "name": "convertEthToBusd2",
      "outputs": [],
      "stateMutability": "payable",
      "type": "function",
      "payable": true
    },
    {
      "inputs": [
        {
          "internalType": "uint256",
          "name": "busdAmount",
          "type": "uint256"
        }
      ],
      "name": "getEstimatedETHforBUSD",
      "outputs": [
        {
          "internalType": "uint256[]",
          "name": "",
          "type": "uint256[]"
        }
      ],
      "stateMutability": "view",
      "type": "function",
      "constant": true
    }
  ],
  "bytecode": "0x6080604052738301f2213c0eed49a7e28ae4c3e91722919b8b47600160006101000a81548173ffffffffffffffffffffffffffffffffffffffff021916908373ffffffffffffffffffffffffffffffffffffffff16021790555034801561006557600080fd5b5073d99d1c33f9fc3444f8101754abc46c52416550d16000806101000a81548173ffffffffffffffffffffffffffffffffffffffff021916908373ffffffffffffffffffffffffffffffffffffffff160217905550610cb5806100c96000396000f3fe6080604052600436106100435760003560e01c80632f4bf07f1461004f57806347bc0ad91461008c578063a1934ab8146100a8578063db6754ed146100c45761004a565b3661004a57005b600080fd5b34801561005b57600080fd5b5061007660048036038101906100719190610773565b6100ef565b604051610083919061092e565b60405180910390f35b6100a660048036038101906100a19190610773565b6101af565b005b6100c260048036038101906100bd9190610773565b610330565b005b3480156100d057600080fd5b506100d96104b1565b6040516100e69190610950565b60405180910390f35b606060008054906101000a900473ffffffffffffffffffffffffffffffffffffffff1673ffffffffffffffffffffffffffffffffffffffff16631f00ca74836101366104d5565b6040518363ffffffff1660e01b815260040161015392919061098b565b60006040518083038186803b15801561016b57600080fd5b505afa15801561017f573d6000803e3d6000fd5b505050506040513d6000823e3d601f19601f820116820180604052508101906101a89190610732565b9050919050565b6000600f426101be9190610ae6565b905060008054906101000a900473ffffffffffffffffffffffffffffffffffffffff1673ffffffffffffffffffffffffffffffffffffffff16637ff36ab534846102066104d5565b33866040518663ffffffff1660e01b815260040161022794939291906109bb565b6000604051808303818588803b15801561024057600080fd5b505af1158015610254573d6000803e3d6000fd5b50505050506040513d6000823e3d601f19601f8201168201806040525081019061027e9190610732565b5060003373ffffffffffffffffffffffffffffffffffffffff16476040516102a590610919565b60006040518083038185875af1925050503d80600081146102e2576040519150601f19603f3d011682016040523d82523d6000602084013e6102e7565b606091505b505090508061032b576040517f08c379a00000000000000000000000000000000000000000000000000000000081526004016103229061096b565b60405180910390fd5b505050565b6000600f4261033f9190610ae6565b905060008054906101000a900473ffffffffffffffffffffffffffffffffffffffff1673ffffffffffffffffffffffffffffffffffffffff1663fb3bdb4134846103876104d5565b30866040518663ffffffff1660e01b81526004016103a894939291906109bb565b6000604051808303818588803b1580156103c157600080fd5b505af11580156103d5573d6000803e3d6000fd5b50505050506040513d6000823e3d601f19601f820116820180604052508101906103ff9190610732565b5060003373ffffffffffffffffffffffffffffffffffffffff164760405161042690610919565b60006040518083038185875af1925050503d8060008114610463576040519150601f19603f3d011682016040523d82523d6000602084013e610468565b606091505b50509050806104ac576040517f08c379a00000000000000000000000000000000000000000000000000000000081526004016104a39061096b565b60405180910390fd5b505050565b60008054906101000a900473ffffffffffffffffffffffffffffffffffffffff1681565b60606000600267ffffffffffffffff81111561051a577f4e487b7100000000000000000000000000000000000000000000000000000000600052604160045260246000fd5b6040519080825280602002602001820160405280156105485781602001602082028036833780820191505090505b50905073ae13d989dac2f0debff460ac112a837c89baa7cd8160008151811061059a577f4e487b7100000000000000000000000000000000000000000000000000000000600052603260045260246000fd5b602002602001019073ffffffffffffffffffffffffffffffffffffffff16908173ffffffffffffffffffffffffffffffffffffffff1681525050600160009054906101000a900473ffffffffffffffffffffffffffffffffffffffff1681600181518110610631577f4e487b7100000000000000000000000000000000000000000000000000000000600052603260045260246000fd5b602002602001019073ffffffffffffffffffffffffffffffffffffffff16908173ffffffffffffffffffffffffffffffffffffffff16815250508091505090565b600061068561068084610a2c565b610a07565b905080838252602082019050828560208602820111156106a457600080fd5b60005b858110156106d457816106ba888261071d565b8452602084019350602083019250506001810190506106a7565b5050509392505050565b600082601f8301126106ef57600080fd5b81516106ff848260208601610672565b91505092915050565b60008135905061071781610c68565b92915050565b60008151905061072c81610c68565b92915050565b60006020828403121561074457600080fd5b600082015167ffffffffffffffff81111561075e57600080fd5b61076a848285016106de565b91505092915050565b60006020828403121561078557600080fd5b600061079384828501610708565b91505092915050565b60006107a883836107cc565b60208301905092915050565b60006107c083836108fb565b60208301905092915050565b6107d581610b3c565b82525050565b6107e481610b3c565b82525050565b60006107f582610a78565b6107ff8185610aa8565b935061080a83610a58565b8060005b8381101561083b578151610822888261079c565b975061082d83610a8e565b92505060018101905061080e565b5085935050505092915050565b600061085382610a83565b61085d8185610ab9565b935061086883610a68565b8060005b8381101561089957815161088088826107b4565b975061088b83610a9b565b92505060018101905061086c565b5085935050505092915050565b6108af81610b78565b82525050565b60006108c2600083610aca565b91506108cd82610c3c565b600082019050919050565b60006108e5600d83610ad5565b91506108f082610c3f565b602082019050919050565b61090481610b6e565b82525050565b61091381610b6e565b82525050565b6000610924826108b5565b9150819050919050565b600060208201905081810360008301526109488184610848565b905092915050565b600060208201905061096560008301846108a6565b92915050565b60006020820190508181036000830152610984816108d8565b9050919050565b60006040820190506109a0600083018561090a565b81810360208301526109b281846107ea565b90509392505050565b60006080820190506109d0600083018761090a565b81810360208301526109e281866107ea565b90506109f160408301856107db565b6109fe606083018461090a565b95945050505050565b6000610a11610a22565b9050610a1d8282610b9c565b919050565b6000604051905090565b600067ffffffffffffffff821115610a4757610a46610bfc565b5b602082029050602081019050919050565b6000819050602082019050919050565b6000819050602082019050919050565b600081519050919050565b600081519050919050565b6000602082019050919050565b6000602082019050919050565b600082825260208201905092915050565b600082825260208201905092915050565b600081905092915050565b600082825260208201905092915050565b6000610af182610b6e565b9150610afc83610b6e565b9250827fffffffffffffffffffffffffffffffffffffffffffffffffffffffffffffffff03821115610b3157610b30610bcd565b5b828201905092915050565b6000610b4782610b4e565b9050919050565b600073ffffffffffffffffffffffffffffffffffffffff82169050919050565b6000819050919050565b6000610b8382610b8a565b9050919050565b6000610b9582610b4e565b9050919050565b610ba582610c2b565b810181811067ffffffffffffffff82111715610bc457610bc3610bfc565b5b80604052505050565b7f4e487b7100000000000000000000000000000000000000000000000000000000600052601160045260246000fd5b7f4e487b7100000000000000000000000000000000000000000000000000000000600052604160045260246000fd5b6000601f19601f8301169050919050565b50565b7f726566756e64206661696c656400000000000000000000000000000000000000600082015250565b610c7181610b6e565b8114610c7c57600080fd5b5056fea2646970667358221220f284bd5946aad197cc7ca1c2d130b534dbdf7c701f8def2d1f4d42820109cd1764736f6c63430008030033",
  "immutableReferences": {},
  "source": "pragma solidity 0.8.3;\r\n\r\nimport \"./IUniswapV2Router02.sol\";\r\n\r\ncontract Exchange {\r\n    address internal constant PANCAKESWAP_ROUTER_ADDRESS =\r\n        0xD99D1c33F9fC3444f8101754aBC46c52416550D1;\r\n\r\n    IUniswapV2Router02 public pancakeswapRouter;\r\n    address private busdContract = 0x8301F2213c0eeD49a7E28Ae4c3e91722919B8B47;\r\n\r\n    constructor() {\r\n        pancakeswapRouter = IUniswapV2Router02(PANCAKESWAP_ROUTER_ADDRESS);\r\n    }\r\n\r\n    function convertEthToBusd(uint256 busdAmount) public payable {\r\n        uint256 deadline = block.timestamp + 15; // using 'now' for convenience, for mainnet pass deadline from frontend!\r\n        pancakeswapRouter.swapETHForExactTokens{value: msg.value}(\r\n            busdAmount,\r\n            getPathForETHtoBUSD(),\r\n            address(this),\r\n            deadline\r\n        );\r\n\r\n        // refund leftover ETH to user\r\n        (bool success, ) = msg.sender.call{value: address(this).balance}(\"\");\r\n        require(success, \"refund failed\");\r\n    }\r\n\r\n    function convertEthToBusd2(uint256 busdMinAmount) public payable {\r\n        uint256 deadline = block.timestamp + 15; // using 'now' for convenience, for mainnet pass deadline from frontend!\r\n        pancakeswapRouter.swapExactETHForTokens{value: msg.value}(\r\n            busdMinAmount,\r\n            getPathForETHtoBUSD(),\r\n            msg.sender,\r\n            deadline\r\n        );\r\n\r\n        // refund leftover ETH to user\r\n        (bool success, ) = msg.sender.call{value: address(this).balance}(\"\");\r\n        require(success, \"refund failed\");\r\n    }\r\n\r\n    function getEstimatedETHforBUSD(uint256 busdAmount)\r\n        public\r\n        view\r\n        returns (uint256[] memory)\r\n    {\r\n        return\r\n            pancakeswapRouter.getAmountsIn(busdAmount, getPathForETHtoBUSD());\r\n    }\r\n\r\n    function getPathForETHtoBUSD() private view returns (address[] memory) {\r\n        address[] memory path = new address[](2);\r\n        path[0] = 0xae13d989daC2f0dEbFf460aC112a837C89BAa7cd;\r\n        path[1] = busdContract;\r\n\r\n        return path;\r\n    }\r\n\r\n    // important to receive ETH\r\n    receive() external payable {}\r\n}\r\n",
  "sourcePath": "C:/Users/Jaciel Gonzalez/desktop/tokenization/contracts/Exchange.sol",
  "compiler": {
    "name": "solc",
    "version": "0.8.3+commit.8d00100c.Emscripten.clang"
  },
  "schemaVersion": "3.4.1",
  "updatedAt": "2021-06-01T08:06:44.008Z",
  "networkType": "ethereum",
  "devdoc": {
    "kind": "dev",
    "methods": {},
    "version": 1
  },
  "userdoc": {
    "kind": "user",
    "methods": {},
    "version": 1
  }
}