{
  "contractName": "FlashLoan",
  "abi": [
    {
      "inputs": [],
      "stateMutability": "nonpayable",
      "type": "constructor"
    },
    {
      "anonymous": false,
      "inputs": [
        {
          "indexed": false,
          "internalType": "uint256",
          "name": "min_amount_a",
          "type": "uint256"
        },
        {
          "indexed": true,
          "internalType": "address",
          "name": "token_a",
          "type": "address"
        },
        {
          "indexed": true,
          "internalType": "address",
          "name": "token_b",
          "type": "address"
        },
        {
          "indexed": false,
          "internalType": "uint256",
          "name": "deadline",
          "type": "uint256"
        }
      ],
      "name": "maxMinEthToken2Evt",
      "type": "event"
    },
    {
      "inputs": [],
      "name": "pancakeswapRouter",
      "outputs": [
        {
          "internalType": "contract IUniswapV2Router02",
          "name": "",
          "type": "address"
        }
      ],
      "stateMutability": "view",
      "type": "function",
      "constant": true
    },
    {
      "inputs": [],
      "name": "router_a",
      "outputs": [
        {
          "internalType": "contract IUniswapV2Router02",
          "name": "",
          "type": "address"
        }
      ],
      "stateMutability": "view",
      "type": "function",
      "constant": true
    },
    {
      "inputs": [],
      "name": "router_b",
      "outputs": [
        {
          "internalType": "contract IUniswapV2Router02",
          "name": "",
          "type": "address"
        }
      ],
      "stateMutability": "view",
      "type": "function",
      "constant": true
    },
    {
      "inputs": [
        {
          "internalType": "uint256",
          "name": "min_amount_a",
          "type": "uint256"
        },
        {
          "internalType": "address",
          "name": "token_a",
          "type": "address"
        },
        {
          "internalType": "address",
          "name": "token_b",
          "type": "address"
        },
        {
          "internalType": "uint256",
          "name": "deadline",
          "type": "uint256"
        }
      ],
      "name": "maxMinEthToken2",
      "outputs": [],
      "stateMutability": "payable",
      "type": "function",
      "payable": true
    },
    {
      "inputs": [
        {
          "internalType": "address",
          "name": "router_addr_a",
          "type": "address"
        },
        {
          "internalType": "uint256",
          "name": "min_amount_a",
          "type": "uint256"
        },
        {
          "internalType": "address",
          "name": "router_addr_b",
          "type": "address"
        },
        {
          "internalType": "uint256",
          "name": "min_amount_b",
          "type": "uint256"
        },
        {
          "internalType": "address",
          "name": "token_a",
          "type": "address"
        },
        {
          "internalType": "address",
          "name": "token_b",
          "type": "address"
        },
        {
          "internalType": "uint256",
          "name": "deadline",
          "type": "uint256"
        }
      ],
      "name": "maxMinEthToken",
      "outputs": [],
      "stateMutability": "payable",
      "type": "function",
      "payable": true
    }
  ],
  "bytecode": "0x6080604052662386f26fc1000060025534801561001b57600080fd5b5073d99d1c33f9fc3444f8101754abc46c52416550d1600360006101000a81548173ffffffffffffffffffffffffffffffffffffffff021916908373ffffffffffffffffffffffffffffffffffffffff160217905550610c92806100806000396000f3fe60806040526004361061004a5760003560e01c8063258c4e5e1461004f578063bcff40f31461006b578063d12d492a14610096578063d2e2f8c7146100c1578063db6754ed146100dd575b600080fd5b6100696004803603810190610064919061086b565b610108565b005b34801561007757600080fd5b506100806102e5565b60405161008d91906109db565b60405180910390f35b3480156100a257600080fd5b506100ab61030b565b6040516100b891906109db565b60405180910390f35b6100db60048036038101906100d6919061078c565b61032f565b005b3480156100e957600080fd5b506100f2610527565b6040516100ff91906109db565b60405180910390f35b8173ffffffffffffffffffffffffffffffffffffffff168373ffffffffffffffffffffffffffffffffffffffff167f44038a9b58dcd522cabc4c439b030ce1dfdbf75ed581f00d0b0b8f4b16025c278684604051610167929190610a62565b60405180910390a3600360009054906101000a900473ffffffffffffffffffffffffffffffffffffffff1673ffffffffffffffffffffffffffffffffffffffff16637ff36ab534866101b9878761054d565b33866040518663ffffffff1660e01b81526004016101da9493929190610a16565b6000604051808303818588803b1580156101f357600080fd5b505af1158015610207573d6000803e3d6000fd5b50505050506040513d6000823e3d601f19601f82011682018060405250810190610231919061082a565b5060003373ffffffffffffffffffffffffffffffffffffffff1647604051610258906109c6565b60006040518083038185875af1925050503d8060008114610295576040519150601f19603f3d011682016040523d82523d6000602084013e61029a565b606091505b50509050806102de576040517f08c379a00000000000000000000000000000000000000000000000000000000081526004016102d5906109f6565b60405180910390fd5b5050505050565b600160009054906101000a900473ffffffffffffffffffffffffffffffffffffffff1681565b60008054906101000a900473ffffffffffffffffffffffffffffffffffffffff1681565b866000806101000a81548173ffffffffffffffffffffffffffffffffffffffff021916908373ffffffffffffffffffffffffffffffffffffffff16021790555084600160006101000a81548173ffffffffffffffffffffffffffffffffffffffff021916908373ffffffffffffffffffffffffffffffffffffffff16021790555060008054906101000a900473ffffffffffffffffffffffffffffffffffffffff1673ffffffffffffffffffffffffffffffffffffffff16637ff36ab534886103f8878761054d565b33866040518663ffffffff1660e01b81526004016104199493929190610a16565b6000604051808303818588803b15801561043257600080fd5b505af1158015610446573d6000803e3d6000fd5b50505050506040513d6000823e3d601f19601f82011682018060405250810190610470919061082a565b5060003373ffffffffffffffffffffffffffffffffffffffff1647604051610497906109c6565b60006040518083038185875af1925050503d80600081146104d4576040519150601f19603f3d011682016040523d82523d6000602084013e6104d9565b606091505b505090508061051d576040517f08c379a0000000000000000000000000000000000000000000000000000000008152600401610514906109f6565b60405180910390fd5b5050505050505050565b600360009054906101000a900473ffffffffffffffffffffffffffffffffffffffff1681565b60606000600267ffffffffffffffff811115610592577f4e487b7100000000000000000000000000000000000000000000000000000000600052604160045260246000fd5b6040519080825280602002602001820160405280156105c05781602001602082028036833780820191505090505b50905083816000815181106105fe577f4e487b7100000000000000000000000000000000000000000000000000000000600052603260045260246000fd5b602002602001019073ffffffffffffffffffffffffffffffffffffffff16908173ffffffffffffffffffffffffffffffffffffffff16815250508281600181518110610673577f4e487b7100000000000000000000000000000000000000000000000000000000600052603260045260246000fd5b602002602001019073ffffffffffffffffffffffffffffffffffffffff16908173ffffffffffffffffffffffffffffffffffffffff16815250508091505092915050565b60006106ca6106c584610ab0565b610a8b565b905080838252602082019050828560208602820111156106e957600080fd5b60005b8581101561071957816106ff8882610777565b8452602084019350602083019250506001810190506106ec565b5050509392505050565b60008135905061073281610c2e565b92915050565b600082601f83011261074957600080fd5b81516107598482602086016106b7565b91505092915050565b60008135905061077181610c45565b92915050565b60008151905061078681610c45565b92915050565b600080600080600080600060e0888a0312156107a757600080fd5b60006107b58a828b01610723565b97505060206107c68a828b01610762565b96505060406107d78a828b01610723565b95505060606107e88a828b01610762565b94505060806107f98a828b01610723565b93505060a061080a8a828b01610723565b92505060c061081b8a828b01610762565b91505092959891949750929550565b60006020828403121561083c57600080fd5b600082015167ffffffffffffffff81111561085657600080fd5b61086284828501610738565b91505092915050565b6000806000806080858703121561088157600080fd5b600061088f87828801610762565b94505060206108a087828801610723565b93505060406108b187828801610723565b92505060606108c287828801610762565b91505092959194509250565b60006108da83836108e6565b60208301905092915050565b6108ef81610b31565b82525050565b6108fe81610b31565b82525050565b600061090f82610aec565b6109198185610b04565b935061092483610adc565b8060005b8381101561095557815161093c88826108ce565b975061094783610af7565b925050600181019050610928565b5085935050505092915050565b61096b81610b6d565b82525050565b600061097e600083610b15565b915061098982610c02565b600082019050919050565b60006109a1600d83610b20565b91506109ac82610c05565b602082019050919050565b6109c081610b63565b82525050565b60006109d182610971565b9150819050919050565b60006020820190506109f06000830184610962565b92915050565b60006020820190508181036000830152610a0f81610994565b9050919050565b6000608082019050610a2b60008301876109b7565b8181036020830152610a3d8186610904565b9050610a4c60408301856108f5565b610a5960608301846109b7565b95945050505050565b6000604082019050610a7760008301856109b7565b610a8460208301846109b7565b9392505050565b6000610a95610aa6565b9050610aa18282610b91565b919050565b6000604051905090565b600067ffffffffffffffff821115610acb57610aca610bc2565b5b602082029050602081019050919050565b6000819050602082019050919050565b600081519050919050565b6000602082019050919050565b600082825260208201905092915050565b600081905092915050565b600082825260208201905092915050565b6000610b3c82610b43565b9050919050565b600073ffffffffffffffffffffffffffffffffffffffff82169050919050565b6000819050919050565b6000610b7882610b7f565b9050919050565b6000610b8a82610b43565b9050919050565b610b9a82610bf1565b810181811067ffffffffffffffff82111715610bb957610bb8610bc2565b5b80604052505050565b7f4e487b7100000000000000000000000000000000000000000000000000000000600052604160045260246000fd5b6000601f19601f8301169050919050565b50565b7f726566756e64206661696c656400000000000000000000000000000000000000600082015250565b610c3781610b31565b8114610c4257600080fd5b50565b610c4e81610b63565b8114610c5957600080fd5b5056fea2646970667358221220f1ccb1a8afb9370168fa28a4cc5a14a306130338f11a7d6a67a0facca44ec7bb64736f6c63430008030033",
  "immutableReferences": {},
  "source": "pragma solidity 0.8.3;\r\n\r\nimport \"./IUniswapV2Router02.sol\";\r\n\r\ncontract FlashLoan {\r\n    IUniswapV2Router02 public router_a;\r\n    IUniswapV2Router02 public router_b;\r\n\r\n    uint256 private founds = 10000000000000000; //0.01 bnb\r\n\r\n    address internal constant PANCAKESWAP_ROUTER_ADDRESS =\r\n        0xD99D1c33F9fC3444f8101754aBC46c52416550D1;\r\n\r\n    IUniswapV2Router02 public pancakeswapRouter;\r\n\r\n    event maxMinEthToken2Evt(\r\n        uint256 min_amount_a,\r\n        address indexed token_a,\r\n        address indexed token_b,\r\n        uint256 deadline\r\n    );\r\n\r\n    constructor() {\r\n        pancakeswapRouter = IUniswapV2Router02(PANCAKESWAP_ROUTER_ADDRESS);\r\n    }\r\n\r\n    function maxMinEthToken2(\r\n        uint256 min_amount_a,\r\n        address token_a,\r\n        address token_b,\r\n        uint256 deadline\r\n    ) public payable {\r\n        emit maxMinEthToken2Evt(min_amount_a, token_a, token_b, deadline);\r\n        pancakeswapRouter.swapExactETHForTokens{value: msg.value}(\r\n            min_amount_a,\r\n            getPathForPair(token_a, token_b),\r\n            msg.sender,\r\n            deadline\r\n        );\r\n\r\n        // refund leftover ETH to user\r\n        (bool success, ) = msg.sender.call{value: address(this).balance}(\"\");\r\n        require(success, \"refund failed\");\r\n    }\r\n\r\n    function maxMinEthToken(\r\n        address router_addr_a,\r\n        uint256 min_amount_a,\r\n        address router_addr_b,\r\n        uint256 min_amount_b,\r\n        address token_a,\r\n        address token_b,\r\n        uint256 deadline\r\n    ) public payable {\r\n        router_a = IUniswapV2Router02(router_addr_a);\r\n        router_b = IUniswapV2Router02(router_addr_b);\r\n\r\n        router_a.swapExactETHForTokens{value: msg.value}(\r\n            min_amount_a,\r\n            getPathForPair(token_a, token_b),\r\n            msg.sender,\r\n            deadline\r\n        );\r\n\r\n        // refund leftover ETH to user\r\n        (bool success, ) = msg.sender.call{value: address(this).balance}(\"\");\r\n        require(success, \"refund failed\");\r\n    }\r\n\r\n    function getPathForPair(address token_a, address token_b)\r\n        private\r\n        view\r\n        returns (address[] memory)\r\n    {\r\n        address[] memory path = new address[](2);\r\n        path[0] = token_a;\r\n        path[1] = token_b;\r\n\r\n        return path;\r\n    }\r\n}\r\n",
  "sourcePath": "C:/Users/Jaciel Gonzalez/desktop/tokenization/contracts/FlashLoan.sol",
  "compiler": {
    "name": "solc",
    "version": "0.8.3+commit.8d00100c.Emscripten.clang"
  },
  "schemaVersion": "3.4.1",
  "updatedAt": "2021-06-02T04:59:37.674Z",
  "networkType": "ethereum",
  "devdoc": {
    "kind": "dev",
    "methods": {},
    "version": 1
  },
  "userdoc": {
    "kind": "user",
    "methods": {},
    "version": 1
  }
}